:100000000C9487080C94AF080C94AF080C94AF08BC
:100010000C94AF080C94AF080C94AF080C94AF0884
:100020000C94AF080C94AF080C94AF080C941F21EB
:100030000C94AF080C94AF080C94AF080C94AF0864
:100040000C9492210C94AF080C94AF080C94AF0858
:100050000C94AF080C94AF080C94AF080C94AF0844
:100060000C94AF080C94AF080404000000000404D2
:10007000D0F0604004043050A0C00404F0F0F06000
:100080000404609090600404303040800808000848
:100090001C416B2A1C00080857872A3006300000D4
:1000A000080857C7920C600C00000808000010BA3E
:1000B000BA5438000808DAC3B9300630000008081E
:1000C000DAC19C0C600C00000808002CF20E5AD813
:1000D00070000808B8CCB440CC0000000808B8C8CC
:1000E000B00030000000080800344F705A1B0E00AA
:1000F00008081D332D023300000008081D130D00F1
:100100000C000000080803050A546830580008086D
:1001100000583068540A050308086CFEFEFEFE7C99
:10012000381008086C9282828244281008081F3D0B
:100130007DF8F2E488E008081F25458892E488E00D
:100140000808306CDEDEF6F66C1808083C7E73BDDD
:10015000CE7E3C000808001C3E4F5F7F3E1C080816
:10016000001C22595141221C080866C3247E3C18F9
:100170004299080866C3245A2418429908080609B7
:1001800009162870A0C00808060F0F162870A0C016
:10019000080800E0A080C989A9EC08080000000058
:1001A0005D59519D080810106C549155555308081D
:1001B000000000006756645708080040A084EAAEBB
:1001C000AA4A080800000000AEECE8AE08080020CB
:1001D00050505555552308080000000076654675B7
:1001E000080800A0A0A8A1AA4A49080810106C5449
:1001F0009315159308080000000032AAB1290808D9
:10020000000000149494001420100000000000006E
:1002100000000000000000000000000000000000DE
:100220000000000000000000000000001000E000DE
:100230001000A0006C0080005400C95D91678959CE
:100240005556A9515564EC9D535700010202030312
:10025000020201040401020202020202010404017A
:100260000202030302020100060708080909080840
:1002700007060607080809090808070A0A07080800
:1002800008080808080808080808090908080706EF
:1002900006070808090908080706000102020B0BF7
:1002A000020202020202020202020202010404012C
:1002B00002020C0C02020100060708080C0C0808D8
:1002C000070A0A0708080C0C0808070606070808AA
:1002D00009090808070A0A0708080E0E0808070691
:1002E000060708080C0C08080706000102020F0F99
:1002F00002020104040102020202020201040401DA
:1003000002020B0B02020100060708080C0C080889
:100310000706060708080C0C0808070A0A07080859
:100320000C0C080807060607080809090808080849
:10033000080808080E0E08080706060708080E0E2B
:10034000080808080808080808080808070A0A1022
:100350000909090911121212121212120C0C0909C0
:100360001006060708080E0E080807060607080804
:100370000E0E0808070A0A0708080E0E0808070AE2
:100380000A070808080808080706060708080909F0
:100390000808070A0A07080808080808070A0A13CD
:1003A0000E0E0E0E14151515151515150E0E0E0E36
:1003B00013060607080809090808070A0A070808B3
:1003C00008080808070A0A07080809090808070AA8
:1003D0000A100909090909090916000102020C0C91
:1003E00002020100000102020303020201040401EF
:1003F0000202020202020104040102020F0F0202C1
:100400000100061710090C0C091112121212121217
:10041000121212121212121212120C0C09091006E8
:10042000060C0C0C0C0C0C0C0C18000102020C0C31
:1004300002020104040102020B0B02020104040186
:100440000202020202020100000102020B0B020280
:1004500001040A130E0E0E0E0E14151515151515A2
:10046000151515151515151515150E0E0E0E130669
:10047000060C0C0C0C0C0C0C0C18000102020B0BE3
:10048000020201040401020202020202020202024A
:100490000202020202020100000102020202020242
:1004A00001040A07080808080808070A0A070819C3
:1004B00019191919191919191919191919191919AC
:1004C000191A1A1A1A1A1A1A1A181B1C1C1C1C1C84
:1004D0001C1C1C1D1D1C1C1E1F1F1E1C1C1B1B1C52
:1004E0001C1C1F1F1C1C1C1C1C1C1C1C1F1F1C1C40
:1004F0001C1D0A0708080909080807061B1C1C1C04
:100500001F1F1C1C1C1D1D1C1C1C1C1C1C1C1C1D22
:100510001D1C1C1C1F1F1C1C1C1B1B1F1F201F1F06
:10052000201F1F1F1F1F1F200C0C201F1F1D1D1C05
:100530001C1E0C0C1E1C1C1B1B1C1C1E0C0C1E1C35
:100540001C1B060708080C0C0808070A0A070808FD
:100550000E0E080807061B1C1C1C1F1F1C1C1C1C45
:100560001C1C1C1E21211E1C1C1B1B2121220C0CCF
:10057000222121212121212221212221211B1B1C79
:100580001C1C0C0C1C1C1C1B1B1C1C1C0C0C1C1CED
:100590001C1B060708080C0C080807061B1C1C1C63
:1005A0001F1F1C1C1C1B1B1F1F200C0C201F1F1F90
:1005B0001F1F1F201F1F201F1F1B1B1C1C1C0C0C80
:1005C0001C1C1C1B1B1C1C1C1C1C1C1C1C1D1D1C6B
:1005D0001C1C21211C1C1C1D1D1C1C1C21211C1C45
:1005E0001C1B060708080C0C080807061B1C1C1C13
:1005F0000C0C1C1C1C1B1B2121222121222121212E
:10060000212121220C0C2221211B1B1C1C1C21211D
:100610001C1C1C1D1D1C1C1E1C1C1E1C1C1D1D1C12
:100620001C1C1C1C1C1C1C1B1B1C1C1C1C1C1C1C0C
:100630001C1D0A0708080C0C080807061B1C1C1EBA
:100640000C0C1E1C1C1B1B1C1C1E1F1F1E1C1C1B01
:100650001B1C1C1C0C0C1C1C1C1B06070808090975
:100660000808070A0A07080808080808070A0A0706
:10067000080808080808070A0A07080808080808F8
:10068000070A0A0708080C0C080807061B1C1C1C94
:1006900021211C1C1C1D1D1C1C1C0C0C1C1C1C1BAF
:1006A0001B1C1C1E0C0C1E1C1C1B060708080E0E17
:1006B000080807061B1C1C1E1F1F1E1C1C1D1D1CC2
:1006C0001C1C1F1F1C1C1C1C1C1C1C1C1F1F1C1C5E
:1006D0001C1B060708080E0E080807061B1C1C1E1C
:1006E0001F1F1E1C1C1B1B1C1C1C0C0C1C1C1C1D63
:1006F0001D1C1C1C21211C1C1C1B1B1C1C1C1C1C31
:100700001C1C1C1D1D1C1C1C21211C1C1C1D1D1C1B
:100710001C1C21211C1C1C1B1B1C1C1C21211C1C07
:100720001C1D1D1C1C1E1C1C1E1C1C1D1D1C1C1C01
:1007300021211C1C1C1D1D1C1C1C21211C1C1C1DE2
:100740001D1C1C1C1C1C1C1C1C1B0101010101018B
:100750000101000001010100000000010100000092
:10076000000001010000010101000100000102027E
:100770000202020202020000020202000000000265
:10078000020000000000020200000202000000005F
:100790000001000000000000020002000002000052
:1007A000000000020103030000000202000000003C
:1007B0000200000003030200000003030000000029
:1007C0000202030300000002030300000002020310
:1007D00003030303020200000000030303030303F7
:1007E00002000000000300000000000304040404F1
:1007F00004040400000000040404000004040400D5
:1008000005000004040000000000040005000000D2
:1008100000000000000400000500000408080000BB
:10082000000000000000080800347AE8B442180014
:100830000808D9DDDCDA9A8676F8080860B0060088
:10084000103C00000808006A6A0A606E6E00080822
:10085000007F411E14043E00080808462C817E5E7D
:100860003C420808348166DB5A24995A0808BD8046
:100870000000000000000808993D00000000000092
:1008800008080000EE3844EEC638080882B319465E
:10089000E0000000080882DAB0440E0000000808FA
:1008A0000074BA926C0438000808BA932946E00034
:1008B00000000808BAD2A8440E000000004010FF53
:1008C000034010FF030810FF3C2410FF004018FFF6
:1008D000001810FF001810FF032010FF034010FF46
:1008E000001018FF034018FF033010FF031810FF1B
:1008F000031008FF001818FF004010FF001818FF31
:10090000383818FF362018FF001818FF031818FF92
:10091000064010FF064010FF034010FF064010FF86
:10092000061010FF064010FF064010FF061010FFD3
:10093000061018FF032010FF3A2410FF064010FF96
:10094000061010FF064018FF064018FF064010FF73
:10095000064010FF061018FF032810FF034010FF89
:10096000061010FF3E1818FF061818FF064010FF6B
:10097000382018FF061010FF064018FF061818FF51
:10098000FFFF0001FFFF020304FFFFFFFFFFFFFF68
:10099000FF05FF0607FF08FFFF09FF0AFF0BFFFF28
:1009A0000CFF0DFFFFFFFFFFFFFFFFFFFFFFFFFF3C
:1009B0000EFF0F10FFFFFFFFFFFF111213FF14FFC9
:1009C000FF15FF1617FF18FF19FFFFFFFFFF1AFFA4
:1009D000FF1B1C1D1E1F20FFFF21FF22FF23FFFF07
:1009E00024FF25FFFFFFFF26FF27FFFF2829FFFF2A
:1009F0002AFFFF2BFFFFFF2C2D2E2FFFFFFF30FFC5
:100A00005072657373201520746F20726573756D55
:100A1000652E004F726967696E616C20627920549F
:100A200045414D204152472E0A506F727420627921
:100A30002057757566662E00040408101010100209
:100A400008081010100210101008100204081010EE
:100A50000208080810100208080810100204081004
:100A600010081010081010080804040810101010C6
:100A70000208081010100204040204020404020414
:100A80000204040204020404020404100204081014
:100A90001008101008101008081010101010101076
:100AA0001010101010101010101010101010101046
:100AB0001010101010101010101010101010101036
:100AC0001010101010101010101010101010101026
:100AD0001010101010101010101010101010101016
:100AE0001010101010101010101010101010101006
:100AF00010101010101010101010101010101010F6
:100B000010101010101010101010101010101010E5
:100B1000101002040404040404040404040404047F
:100B20000404040404040404040404040404040485
:100B30000404040404040404040404040404040475
:100B40000404040404040404040404040404040465
:100B50000404040404040880088001010101010464
:100B60000404101010100224002B00240024003272
:100B7000003400350037003F003700370038003AB6
:100B800000300030003A0038003A003800370037B3
:100B900000350035003700380037003500330033AA
:100BA00000350037003500330032003200340036A3
:100BB00000390037002B002B002B002B002B002BC3
:100BC000002B002B002B002B0024002B00240024E2
:100BD0000032003400350037003F0037003700385E
:100BE000003A0030003F003E002F00370038003050
:100BF000002F0037003700380030002F0037003456
:100C0000003500380037003300240032003400364D
:100C100000390037002B002B002B002B002B002B62
:100C2000002B002B002B002B002D0024003400355E
:100C3000002D002400340035002D00240034003540
:100C4000002D002400340035002C00230034003532
:100C5000002C002300340035002C00230034003524
:100C6000002C002300340035002B002E003400350A
:100C7000002B002E00340035002B002E00340035F0
:100C8000002B002E00340035002A002D00340035E2
:100C9000002A002D00340035002A002D00340035D4
:100CA000002A002D003400350029002D00320034C8
:100CB0000029002D003200340029002D00320034BC
:100CC0000029002D003200340028002D00320034AD
:100CD0000028002D003200340028002D003200349E
:100CE0000028002D003200340026002C002300359F
:100CF000003400330032003400330032002500336A
:100D000000320025002400320025002400230025A5
:100D100000240023002E002C002B002A0039002D77
:100D2000003200360035002D00310025002F003242
:100D30000036002F0039003200340036002F003218
:100D40000037002F003A0032003400370036002D03
:100D50000032003600340023002500340039002D15
:100D6000003200360035002D00310025002F003202
:100D70000036002F0039003200340036002F0032D8
:100D80000037002F003A0032003400370036002DC3
:100D90000032003600340023002500340034003EC9
:100DA0000040003F003F003E003F0031003F003F59
:100DB000003F003F0025003D003F0024003200348A
:100DC000003500370003053F213F1208120A100AC0
:100DD0000E1C0E0C1E0C141A14161F161E131E1EAB
:100DE0001B1E1E1F1E3F213F3A2F3A173D173F2162
:100DF0003F181F02040A041F0E04040E1F0A1F0AD4
:100E00000E0E1F04110E2E252E2F2A2E2629290202
:100E10001F02081F08150E04040E150E15151B15CC
:100E20001B040604040C0400000000170003000368
:100E30001F0A1F16371A1904130A153A0003000077
:100E40000E11110E000A040A040E040030000404FE
:100E5000040010001804031F111F121F101D151786
:100E600011151F07041F17151D1F151D01011F1F39
:100E7000151F17151F000A00003200040A110A0A84
:100E80000A110A040115020E11171E051E1F150A6C
:100E90000E110A1F110E1F15111F05010E111D1F26
:100EA000041F111F1108100F1F041B1F10101F0615
:100EB0001F1E040F0E110E1F09060E112E1F051AFC
:100EC000121509011F011F101F0F180F1F0C1F1BE8
:100ED000041B031C03191513001F11030418111F11
:100EE000000201022020200001020C121E1F120C21
:100EF0000C12120C121F0C1A14041E05242A1E1F99
:100F0000021C141D1020201D1F0814111F101E0488
:100F10001E1E021C0C120C3E0A040C123E1E040281
:100F200014160A020F120E101E0E100E1E081E12AC
:100F30000C1226281E322A26041E21001F00211E04
:100F4000040102013F213F0A4E6F20534420636198
:100F50007264206F720A6E6F204C4F414445522ECE
:100F60004845580A0A153A45786974001D20466CB0
:100F7000617368696E670A20206C6F616465722E08
:100F80002E2E0A0A444F4E2754205455524E204FBD
:100F9000464621000A0A153A49676E6F7265006D70
:100FA000560A0A504C45415345205455524E204F45
:100FB000464620004C4F5720424154544552592137
:100FC0002000175344001613780016131400151050
:100FD000200015201000540A03E181867F3E186D21
:100FE000830F0F0E0183866033186DC3198F1803AA
:100FF000C38E6033186DE330CF1803C39E60363064
:10100000CDE360CF3006C79E7E3E30CDB360CF309B
:101010000CC6F6603330D9B660CF33CFCCF6606102
:10102000B0DB1E60CF30D86CE6C061B0DB1E618FD4
:1010300019986CC6C063B19B0E330F0FB078C6FF12
:101040007E1F1B061E0F05008930080238024978F2
:1010500068140000F6E8DBCFC3B8AEA49B928A8286
:101060007B746E68625C57524E4945413E3A373454
:10107000312E2C29272523211F1D1C1A191716155F
:1010800014131211100F0E0D0C0B0A090807064558
:101090000068010000050068013801000005003803
:1010A0000168010000AD10A9100101FF030101F763
:1010B0000300000008000201000003040700000014
:1010C000000000000001020408102040800102041A
:1010D000081020010204081020040404040404047D
:1010E00004020202020202030303030303000000DE
:1010F0000023002600290000000000250028002B06
:101100000000000000240027002A0000AB12112478
:101110001FBECFEFD8E0DEBFCDBF11E0A0E0B1E051
:10112000E4EFFEE402C005900D92AE33B107D9F7AB
:1011300024E0AEE3B1E001C01D92AC30B207E1F7AC
:1011400011E1CEE0D1E104C02297FE010E94002708
:10115000CC30D107C9F70E9441250C9478270C9414
:1011600000009A01E0E0F0E0E40FF51FE491FA01DD
:101170003196E491462F682F8BEA91E00C94691721
:10118000FF920F931F93CF93DF931F92CDB7DEB7DC
:10119000182FF62EFA0124913196049160E08BEA23
:1011A00091E029830E94731529814F2D612F8BEACD
:1011B00091E00E94C11561E08BEA91E00F90DF9110
:1011C000CF911F910F91FF900C947315FF920F9385
:1011D0001F93CF93DF93CDB7DEB72A970FB6F8945E
:1011E000DEBF0FBECDBF09831A832B833C834D83A3
:1011F0005E836F83788789879A8701E010E088E0B3
:10120000F82E8D8190E0801791074CF02EE630E0AB
:101210004F2D60E58BEA91E00E94691706C048E611
:1012200050E06F2D80E50E94C00885E0F80E0F5F4A
:101230001F4FECE1FE12E5CF8E010A5F1F4FF80150
:1012400081918F018A33B1F028F48633B1F424E719
:1012500030E009C08C3329F08E3379F426E830E091
:1012600002C02AE730E04F2D60E58BEA91E00E9452
:10127000691709C020E830E0F6CF48E650E06F2D4E
:1012800080E50E94C008F5E0FF0E8BE2F812D7CF90
:101290002A960FB6F894DEBF0FBECDBFDF91CF9177
:1012A0001F910F91FF90089510920A0191E0909381
:1012B0000B0194E290930C0198E190930D0193E05F
:1012C00090930E0110921301882341F010920F01A8
:1012D00010921001109211011092120108950F93B3
:1012E0001F93CF93C82F4CE158E060910D0180917E
:1012F0000C010E94C00860910D01685F4CE158E04C
:1013000080910C010E94C00880910A01C81305C099
:1013100080910B018F5F833008F081E080930B0197
:10132000C0930A01C33009F445C018F4CC2341F03E
:10133000EBC0C63009F477C0C93009F4AAC0E4C0D4
:1013400060910D016832A8F4605F80910C010E94E9
:10135000500D8111D9C060910D01605F80910C0129
:101360008C5F0E94500D8111CFC080910D018C5F68
:1013700039C081E00E94900D00910A0110910B018B
:1013800020910C0130910D0140910E0150910F01FF
:1013900060911001709111018091120190911301DF
:1013A0000E94E60884E280930C0110920D011092D5
:1013B0000A01AAC060910D016623B9F064508091C2
:1013C0000C010E94500D81119FC060910D0164506D
:1013D00080910C018C5F0E94500D811195C080910D
:1013E0000D01845080930D018FC080E00E94900D0C
:1013F00000910A0110910B0120910C0130910D0117
:1014000040910E0150910F016091100170911101F6
:1014100080911201909113010E94E60884E280936A
:101420000C0188E26DC080910C018823A9F06091C5
:101430000D0184500E94500D811166C060910D0114
:10144000645F80910C0184500E94500D81115CC03A
:1014500080910C01845035C082E00E94900D009173
:101460000A0110910B0120910C0130910D01409166
:101470000E0150910F016091100170911101809146
:101480001201909113010E94E60888E480930C01F8
:1014900036C080910C018834B8F460910D01845FEE
:1014A0000E94500D811130C060910D01645F8091E8
:1014B0000C01845F0E94500D811126C080910C01A7
:1014C0008C5F80930C0120C083E00E94900D0091FE
:1014D0000A0110910B0120910C0130910D014091F6
:1014E0000E0150910F0160911001709111018091D6
:1014F0001201909113010E94E60810920C0180E104
:1015000080930D01C0930A0140910A018AE0489F2F
:10151000A001112444575F4F60910D0180910C018F
:101520000E94B10820910A0180910B0190E0820F86
:10153000911D2AE0289FA001299F500D1124445796
:101540005F4F60910D01685F80910C01CF911F91F9
:101550000F910C94B10880910A010C946F09CF93FC
:10156000DF93CDB7DEB727970FB6F894DEBF0FBE77
:10157000CDBF80E00E94BA1029833A834B835C83FD
:101580007E838F83611138C080910A018330C9F056
:1015900058F4811128C080910C018B8380910D013A
:1015A000805F8C8363E020C08630A1F08930D9F45D
:1015B00080910C01885F8B8380910D018C8365E0A5
:1015C00013C080910C018B8380910D0188508C8316
:1015D00062E00AC080910C0188508B8380910D01DC
:1015E0008C8364E001C060E029813A814B815C8199
:1015F0007E818F810E94931027960FB6F894DEBFEC
:101600000FBECDBFDF91CF9108952AE0EAE0F1E06F
:10161000DC0101900D922A95E1F7089590910F0158
:10162000992359F090911001992351F09091110153
:10163000911110C022E030E005C020E030E002C08F
:1016400021E030E0F901E65FFE4F858382E891E01A
:101650000C94432182E0809313010895DF92EF926E
:10166000FF920F931F93CF93DF93CDB7DEB72E97E3
:101670000FB6F894DEBF0FBECDBF2887E32E3987A3
:101680004A875B87F62E6C877D878E87D82E81E30D
:10169000831770F1D11012C080910E018150809398
:1016A0000E0182E891E00E94592180910E01811182
:1016B00003C081E08093130144E1D42E83E0F81647
:1016C00089F08F1530F082E0F8127FC033E0F32EFE
:1016D0007CC084E0F81649F085E0F81276C084E01A
:1016E000F82E73C022E0F22E70C095E0F92E6DC086
:1016F00088E3381709F441C0831728F084E33817CA
:1017000061F086E307C08CE3381719F18EE33817D0
:1017100001F18AE3E81259C01CC080910E018430A7
:1017200018F48F5F80930E01288534E34A855B852A
:101730006C857D858E850E94DB0C28874A875B87B8
:101740007D87E32EF62ED82E82E891E00E946F214D
:101750003CC08E2D0E940E0B288539854A855B85FD
:101760006C857D858E850E94DB0C28874A875B8788
:101770007D87E32EF62ED82E28C0288538E34A85AB
:101780005B857D858D2D0E94DB0C28874A875B87D2
:101790007D87E32EF62ED82E0E94B10D80342CF0DA
:1017A00080E00E94B40D80E004C080E40E94B40D8B
:1017B00081E00E94511384E280930C0188E18093C0
:1017C0000D0110920A010E94AB0A00910A011091CA
:1017D0000B0120910C0130910D0140910E015091AF
:1017E0000F0160911001709111018091120190918F
:1017F00013010E94E608E986FC86DE8687E0FE018A
:101800003896DE01119601900D928A95E1F72981B3
:101810003A814B815C816D817E818F8190E02E9633
:101820000FB6F894DEBF0FBECDBFDF91CF911F91F1
:101830000F91FF90EF90DF900895EFE0F1E099278E
:1018400087FD90952191233320F030E02817390748
:1018500031F021E0E231F207A9F780E0089581E05C
:101860000895809113010895BF92CF92DF92EF9275
:10187000FF920F931F93CF93DF93CDB7DEB72E97D1
:101880000FB6F894DEBF0FBECDBF2887C32E142F2E
:10189000052FF62EE72ED82E662309F465C04CE1FD
:1018A00058E0602F812F0E94C008E39482E08E15DB
:1018B00010F4EE24E39483E0F816C9F08F1520F0BD
:1018C00082E0F81641F03DC084E0F816D9F085E0DA
:1018D000F81621F136C0002361F19CEFB92EB00E4D
:1018E0006B2D812F0E94500D882341F122C00832B8
:1018F00000F568E0600F812F0E94500D811119C022
:101900000C5F1FC01123A9F08CEFB82EB10E602F11
:101910008B2D0E94500D882399F00BC0183448F489
:10192000602F8CE0810F0E94500D811102C01C5F5E
:1019300008C0F12CDD20C1F0DA9416C00B2D01C0D7
:101940001B2D2C2D30E0235331092E0D311D8AE043
:10195000829FA001839F500D11244C5F5E4F602F2A
:10196000812F0E94B108E6CFC9861A870B87FC86B3
:10197000ED86DE8687E0FE013896DE011196019045
:101980000D928A95E1F729813A814B815C816D81C5
:101990007E818F8190E02E960FB6F894DEBF0FBE49
:1019A000CDBFDF91CF911F910F91FF90EF90DF900E
:1019B000CF90BF900895CF93DF93CDB7DEB72E972A
:1019C0000FB6F894DEBF0FBECDBF28873987942F9E
:1019D0004A87652F5B877D878E874CE158E0892F8A
:1019E0000E94C0081C8687E0FE013896DE01119631
:1019F00001900D928A95E1F729813A814B815C81B2
:101A00006D817E818F8190E02E960FB6F894DEBFB7
:101A10000FBECDBFDF91CF9108950F931F93CF934A
:101A2000DF93182F0AE1C82FDD27C7FDD095239635
:101A3000212F332727FD3095C217D3077CF08AE08A
:101A400018029001112420573E4F40E1602F8BEA8D
:101A500091E00E946917085F1F5FEACFDF91CF9185
:101A60001F910F9108954F3F11F440913E01E82FCF
:101A7000FF27E7FDF0958AE04802E00DF11D1124F3
:101A8000E65BFD4F8491E62FFF27E7FDF09596E09A
:101A90008902E00DF11D1124E65BF84F8491089551
:101AA00087FD895F8595859585958A3054F467FD16
:101AB000695F65956595659566301CF44FEF0C94EC
:101AC000330D80E008950F931F93CF93DF938BEA3C
:101AD00091E00E941A1500E0D0E010E0C0E04FEF66
:101AE0006D2F8C2F0E94330D9AE0890290011124F2
:101AF000245E374F402F612F8BEA91E00E946917D7
:101B0000CF5F185FCA3059F7DF5F085FD63029F71B
:101B100080913E01DF91CF911F910F910C94F90EAE
:101B2000813091F01CF4882349F019C0823081F093
:101B30008330A9F480913E018F5F0FC080913E01F8
:101B400018166CF4885009C080913E01885F05C06A
:101B500080913E0118161CF4815080933E010C9434
:101B6000630D80913E01089580933E010C94630DB6
:101B70000E94622724E030E040E050E00E94D4263A
:101B800082E0860F0895BF92CF92DF92EF92FF928C
:101B90000F931F93CF93DF93CDB7DEB72E970FB67A
:101BA000F894DEBF0FBECDBF2887B32E3987F42E41
:101BB000052F162FE72ED82E662309F497C04CE187
:101BC00058E0602F8F2D0E94C0084CE158E068E07B
:101BD000600F8F2D0E94C008E39482E08E1510F4F0
:101BE000EE24E394133029F128F4113049F0123037
:101BF00059F05FC0143089F1153009F443C059C061
:101C00000E94B80D182F55C0053008F451C03CEFA4
:101C1000C32EC00E6C2D8F2D0E94500D811148C017
:101C20006C2D84E08F0D0E94500D811141C00C2D50
:101C300040C00832E8F520E1C22EC00E6C2D8F2D79
:101C40000E94500D811134C06C2D84E08F0D0E94D4
:101C5000500D81112DC00C5F2CC084E08F1540F514
:101C60009CEFC92ECF0C602F8C2D0E94500D81113E
:101C70001FC06CE0600F8C2D0E94500D811118C0A8
:101C8000FC2C17C087E48F1598F08CE0C82ECF0C81
:101C9000602F8C2D0E94500D81110AC06CE0600FE6
:101CA0008C2D0E94500D811103C084E0F80E01C0FC
:101CB00011E08AE0B89EA00111244E59574F602FC1
:101CC0008F2D0E94B1082E2D30E02B0D311D8AE0A2
:101CD000829FA001839F500D11244E59574F68E0F9
:101CE000600F8F2D0E94B108D110DA94FA860B870D
:101CF0001C87ED86DE8687E0FE013896DE011196B0
:101D000001900D928A95E1F729813A814B815C819E
:101D10006D817E818F8190E02E960FB6F894DEBFA4
:101D20000FBECDBFDF91CF911F910F91FF90EF902C
:101D3000DF90CF90BF900895FF920F931F93CF93A2
:101D4000DF93CDB7DEB72E970FB6F894DEBF0FBE88
:101D5000CDBF28873987142F4A87F52E5B877D876B
:101D60008E874CE158E06F2D812F0E94C00868E0FB
:101D70006F0D4CE158E0812F0E94C00804E121E082
:101D80004F2D612F84E30E94E30E1C8687E0FE0145
:101D90003896DE01119601900D928A95E1F729811E
:101DA0003A814B815C816D817E818F8190E02E969E
:101DB0000FB6F894DEBF0FBECDBFDF91CF911F915C
:101DC0000F91FF9008950F9390913F0137E0930298
:101DD000F0011124E05CFE4F908381836283438392
:101DE00081E08583248306839F5F90933F010F9159
:101DF00008950F93CF93DF93C82F8CE1A0E4B1E057
:101E0000FD0111928A95E9F710923F0100E020E070
:101E100040E060E082E30E94E30EEC2FFF27E7FD45
:101E2000F095E058F64FC491D0E0CF3FD10509F1CD
:101E3000CC0FDD1FCC0FDD1FC454D74F80913F0165
:101E40008430BCF4FE0184910E941D0C81110BC0F2
:101E5000FE013296449131976491FE01849100E035
:101E600021E00E94E30EFE013396E4912496EF3FB9
:101E700029F7DF91CF910F910895CF92DF92EF92E2
:101E8000FF920F931F93CF93DF93CDB7DEB72797C2
:101E90000FB6F894DEBF0FBECDBF3A83852F50E05A
:101EA000112707FD10954017510734F09801285F5E
:101EB0003F4F241735074CF49A01285F3F4F2017F6
:101EC000310794F1041715077CF12A8190E0FF2473
:101ED000E7FCF0942233B0F4DD24C7FCD0948E15D7
:101EE0009F0544F097012C0D3D1D2817390714F06C
:101EF00081E01BC08C0D9D1D8E159F05ACF0EC0C78
:101F0000FD1C0FC08E159F0534F09701285F3F4FD1
:101F1000281739076CF79C01285F3F4F2E153F05A6
:101F20001CF0E816F90624F780E027960FB6F8941F
:101F3000DEBF0FBECDBFDF91CF911F910F91FF90FC
:101F4000EF90DF90CF9008958F929F92AF92BF92C3
:101F5000CF92DF92EF92FF920F931F93CF93DF9375
:101F6000CDB7DEB72A970FB6F894DEBF0FBECDBF50
:101F7000CE0101960E94050BF12C37E0D32E809103
:101F80003F01F8160CF0BCC08F2C992487FC90946C
:101F9000D89C5001D99CB00C1124C501805C9E4F87
:101FA0005C01FC018481882309F4A8C020E1C22ED1
:101FB000EC800B812081318142815381682F7581B2
:101FC00086810E943D0F882391F0F50120813181A7
:101FD000428153816481758186810E942E0BF501B7
:101FE0002083318342835383648375838683D89CA3
:101FF0005001D99CB00C1124C501805C9E4F5C013E
:10200000FC018181823308F059C08091440188230A
:1020100009F441C098E0C92EE090430100914201CB
:1020200020813181428153816481758186810E9442
:102030003D0F882381F1F501208131814281538157
:102040006481758186810E949C0EF5012083318315
:10205000428353836483758386832091400130914A
:1020600041014091420150914301609144017091BE
:102070004501809146010E94DB0C20934001309382
:102080004101409342015093430160934401709396
:10209000450180934601D89C8001D99C100D1124E4
:1020A000005C1E4FF801208131814281538164819F
:1020B000758186810E94C30DF80119C0F501208148
:1020C0003181428153816481758186810E94340C03
:1020D000F501208331834283538364837583868330
:1020E000343361F481110AC00E94DB0CF5012083B6
:1020F000318342835383648375838683F3943FCF14
:102100002A960FB6F894DEBF0FBECDBFDF91CF91F8
:102110001F910F91FF90EF90DF90CF90BF90AF9005
:102120009F908F900895CF93DF93CDB7DEB7279719
:102130000FB6F894DEBF0FBECDBF29833A834B8321
:102140005C836D837E838F8387E0289FD001112479
:10215000A05CBE4F87E0FE01319601900D928A95FA
:10216000E1F727960FB6F894DEBF0FBECDBFDF9123
:10217000CF910895CF93DF93CDB7DEB727970FB6F2
:10218000F894DEBF0FBECDBF97E08902F0011124A5
:10219000E05CFE4F87E0DE01119601900D928A957A
:1021A000E1F729813A814B815C816D817E818F814C
:1021B00090E027960FB6F894DEBF0FBECDBFDF913B
:1021C000CF910895FF920F931F93CF93DF93CDB7D5
:1021D000DEB72A970FB6F894DEBF0FBECDBF8BEAED
:1021E00091E00E941A15FF24F394F092B1016AE085
:1021F0008DE591E00E94511A40E061E08BEA91E0A8
:102200000E94771500E020E040E061E082E891E084
:102210000E940D1F80E00E94B40D0E94AB0ACE0107
:1022200001960E94050B09811A812B813C814D8109
:102230005E816F81788589859A850E94E60880E0B5
:102240000E945113F0925C012A960FB6F894DEBFFB
:102250000FBECDBFDF91CF911F910F91FF900895D9
:102260008BEA91E00E941A1584E080935C010E9441
:102270000D0D82E00C9452138BEA91E00E941A1526
:1022800083E080935C0188E00E940D0D83E00C9454
:1022900051138DE591E00E94401E65EC7DE08BEAD4
:1022A00091E00E949B1880E00E948022BC01882758
:1022B00077FD8095982F0E94F12448E052E063E179
:1022C0007AE08DE591E00E94851C0C94E210EF927B
:1022D000FF920F931F93CF93DF93CDB7DEB7E397B2
:1022E0000FB6F894DEBF0FBECDBF80915C01823087
:1022F00009F40BC12CF4882331F08130B1F11EC1F7
:1023000085300CF01BC18DE591E00E948A1B88236B
:1023100009F414C164E087E691E00E947E14811103
:1023200007C065E087E691E00E947E14882379F07B
:1023300080915C01181634F4833009F0FDC081E00F
:102340000E94540981E080935C010E94E210E396B0
:102350000FB6F894DEBF0FBECDBFDF91CF911F91B6
:102360000F91FF90EF900C94B6128DE591E00E94D2
:102370008A1B882309F4E2C041E061E087E691E02E
:102380000E948714882319F083E00E946F0941E0BE
:1023900063E087E691E00E948714882319F080E0CB
:1023A0000E946F0941E062E087E691E00E94871495
:1023B000882319F089E00E946F0941E060E087E618
:1023C00091E00E948714882319F086E00E946F092B
:1023D00064E087E691E00E947E1481110E94AF0ABA
:1023E00066E087E691E00E947E14882309F47CC0B1
:1023F00048E052E060E07AE08DE591E00E94851CC3
:102400008BEA91E00E941A1581E08093B101E12CE2
:1024100010E000E0F12C4FEF612F8F2D0E94330D63
:102420009AE0890290011124245E374F4E2D602FCF
:102430008BEA91E00E946917F394085F8AE0F81232
:10244000EACF1F5F98E0E90E163019F7CE0101962A
:102450000E94050B09811A812B813C814D815E818F
:102460006F81788589859A850E94E608CE010B9652
:102470000E94050B1B85CE0145960E94050B688DB9
:10248000CE014F966BAB0E94050B8AE0189FA0010E
:10249000112444575F4F6BA989A10E94B108CE0156
:1024A00045960E94050B0D8910E0CE010B960E9407
:1024B000050B8C859801280F311DF29E8001F39E3B
:1024C000100D112404571F4FCE014F960E94050B8B
:1024D0006AA1685FCE0189966BAB0E94050BA801CB
:1024E0006BA98BA50E94B1080E94A40F0E94310C19
:1024F000882309F42CCF0E94310C813019F40E94FA
:10250000301125CF0E943C1122CF8DE591E00E9431
:102510008A1B882399F066E171E08BEA91E00E94C2
:102520001E2465E087E691E00E947E14882331F046
:1025300081E080935C0102C080E002CFE3960FB699
:10254000F894DEBF0FBECDBFDF91CF911F910F91E9
:10255000FF90EF9008951092AE011092AD0181E2CC
:1025600091E09093AC018093AB0108950F931F937A
:10257000CF93DF936091F4018EEF860F823008F0E5
:102580008BC08091E8019091E901A091EA01B0919E
:10259000EB018C599F4FAF4FBF4F8093E801909351
:1025A000E901A093EA01B093EB010091E4011091DD
:1025B000E5012091E6013091E70180179107A2071C
:1025C000B3070CF469C04091F8015091F901809172
:1025D000F5019091F6014817590731F5633021F064
:1025E00084E08093F40120C08091F2019091F30186
:1025F0009093FB018093FA018091EE019091EF019D
:102600009093F6018093F5018091F0019091F10192
:102610009093F9018093F8018091ED018093F4018A
:102620008091EC018093F701C091F801D091F901FC
:10263000FE01E85CF54F649170E08091FA019091A1
:10264000FB010E949E26AB01CB018C599F4FAA270C
:1026500097FDA095BA2F800F911FA21FB31F8093E3
:10266000E4019093E501A093E601B093E701FE0138
:10267000EE0FFF1FE959F44F6591749120E082E855
:1026800091E00E943E1F8091F8019091F90101961E
:102690009093F9018093F801DF91CF911F910F91F1
:1026A0000895089582E08093F4010895CF93CFB701
:1026B000F8948091FC01811127C0E3EEF0E1849150
:1026C000EFECF0E19491E82FF0E0EE0FFF1FEF5FE9
:1026D000FE4EA591B4918C91892321F461E08AE0AA
:1026E0000E945E2361E08AE00E9425238CB5806110
:1026F0008CBD8CB580648CBD61E08DE00E9425238B
:1027000061E08BE00E9425238091FC018F5F809324
:10271000FC01CFBFCF91089521E0FC0120830895F3
:1027200070E085E00C949D22AF92BF92CF92DF9231
:10273000EF92FF920F931F93CF93DF93EC01898168
:102740009A812FE0289F8001299F100D112485E197
:102750000E948022800F911F24E0969587952A95EC
:10276000E1F79A8389832881222391F1AC81AD809E
:10277000B12CC12CD12CE885F9857F0100E010E057
:102780006E817F819B0140E050E08617970728F01B
:10279000BC01E817F90708F4BF0180E090E01F9240
:1027A0001F921F92AF930E94F9246B830F900F909A
:1027B0000F900F9070E085E0DF91CF911F910F9106
:1027C000FF90EF90DF90CF90BF90AF900C949D2240
:1027D000DF91CF911F910F91FF90EF90DF90CF90FD
:1027E000BF90AF900895FC018CE39FE093838283B8
:1027F00084E0818381E084870895CF93DF93EC01A7
:102800008C819D81892B81F18C858F7151F584E1BB
:102810000E948022BC01882777FD8095982F0E9416
:102820007F2526EE3FE34EEC50E40E940B260E94EB
:1028300051259B017B836A836115710581F084E0DA
:102840008983FE0140E0848195812817390710F4BF
:1028500049830AC04F5F32964430A9F702C08FEF18
:1028600089838C858F5F8C87DF91CF910895FC01E0
:1028700088E0808389E0818387E0828386E08383A8
:1028800084E0848382E0858381E186830895DF92FA
:10289000EF92FF920F931F93CF93DF937C01EC0194
:1028A00000E010E0DD24DA9462E088810E942523B4
:1028B00088810E949423F701E00FF11F892B21F4F6
:1028C00087818F5F878308C08781882349F08F3F86
:1028D00011F4178201C0D78260E088810E9425230D
:1028E0000F5F1F4F219607301105F1F6DF91CF9151
:1028F0001F910F91FF90EF90DF900895FC01E60F7C
:10290000F11D81E09781913009F080E00895262F34
:1029100030E0FC01E20FF31F8781423028F4815040
:102920008E3F48F080E008958F3FE1F3642F0E94CE
:102930007E269130B9F781E008958EBD00000DB478
:1029400007FEFDCF8EB50895DC01643508F053C055
:10295000403308F050C090968C919097342F359565
:1029600035953595E62FFF27E7FDF095242F277045
:10297000823099F4DF01A350BE4F84E53802A00DE8
:10298000B11D11248C9190E0022E02C0959587957F
:102990000A94E2F78095817009C0833039F44627A4
:1029A0001C968C91482740FF03C014C0811112C0AF
:1029B00084E53802E00DF11D1124E350FE4F81E063
:1029C00090E0022E01C0880F0A94EAF7809590816A
:1029D000982310C084E53802E00DF11D1124E35066
:1029E000FE4F81E090E0022E01C0880F0A94EAF7C2
:1029F0009081982B908308951F93CF93DF93EC01E0
:102A0000162FF89460E08F850E945E23888918163F
:102A10001CF460E00E945E23812F0E949D1488892F
:102A200018161CF461E00E945E237894DF91CF9128
:102A30001F91089528EF31E0EDEFF1E0DF01A901EA
:102A40001D9241505040E1F7DC0119961C921997F4
:102A50001A961C920895DF92EF92FF920F931F93A4
:102A6000CF93DF93EC018C858F5F8C878DEFE82E01
:102A700081E0F82ED12C6D2D6064CE010E94FC14F3
:102A800060E8CE010E94FC1461E08F850E945E2305
:102A9000888918161CF460E00E945E2300E010E0B4
:102AA000F701E00FF11F80810E949D140F5F1F4FFF
:102AB00004351105A9F7888918161CF461E00E94F5
:102AC0005E23D39484E5E80EF11C86E0D812D3CFC0
:102AD00060E4CE01DF91CF911F910F91FF90EF90B5
:102AE000DF900C94FC14FC0160A361A30895FC0129
:102AF00060A341A30895CF92DF92FF920F931F939B
:102B0000CF93DF931F92CDB7DEB76C01062FF42E63
:102B100010E0121754F4412F4F0D602FC601298386
:102B20000E94A4141F5F2981F4CF0F90DF91CF91F1
:102B30001F910F91FF90DF90CF900895CF92DF9279
:102B4000FF920F931F93CF93DF931F92CDB7DEB702
:102B50006C01062FF42E10E0121754F4612F600F51
:102B60004F2DC60129830E94A4141F5F2981F4CF31
:102B70000F90DF91CF911F910F91FF90DF90CF9039
:102B80000895DF92EF92FF920F931F93CF93DF93FD
:102B9000EC01E62ED22EF42E112707FD1095040F1E
:102BA000111D47FD1A958F2D992787FD9095801748
:102BB000910744F42D2D4F2D6E2DCE010E949E15B0
:102BC000F394F1CFDF91CF911F910F91FF90EF9090
:102BD000DF9008958F929F92AF92BF92CF92DF9233
:102BE000EF92FF920F931F93CF93DF93EC01E62EAA
:102BF000D42E122FCC24C394C21AB22EB194BB0C83
:102C0000F12C802F8470A82E802F8270982E802F18
:102C10008870882E0170F1160CF04DC0C7FC04C0FE
:102C20001150B394B394CB0CF3948F2D880F8F5F16
:102C3000C80EAA2071F0412F4D0D6F2D6E0DCE01E3
:102C40000E94A4144F2D4D0D612F6E0DCE010E94D8
:102C5000A414992071F04D2D411B6F2D6E0DCE01E6
:102C60000E94A4144D2D4F19612F6E0DCE010E94AC
:102C7000A414882071F04F2D4D0D6E2D611BCE01D7
:102C80000E94A414412F4D0D6E2D6F19CE010E948C
:102C9000A414002309F4BFCF4D2D4F196E2D611BD5
:102CA000CE010E94A4144D2D411B6E2D6F19CE0133
:102CB0000E94A414B0CFDF91CF911F910F91FF908C
:102CC000EF90DF90CF90BF90AF909F908F9008953E
:102CD0008F929F92AF92BF92CF92DF92EF92FF922C
:102CE0000F931F93CF93DF93EC01B62EA42E122FD8
:102CF000DD24D394D21AC22EC194CC0CFF24F394B9
:102D0000802F8170882E992493949E0C02708FEFEF
:102D10008F0D8117C4F5D7FC04C01150C394C39420
:102D2000DC0C8F2D880F8F5FD80E882099F0212F13
:102D3000220F290D4A2D411B6F2D6B0DCE010E94D4
:102D40007B1523E02E0D4A2D4F19612F6B0DCE01FF
:102D50000E947B15002399F0212F220F290D4A2D67
:102D6000411B6B2D6F19CE010E947B1523E02E0DA8
:102D70004A2D4F196B2D611BCE010E947B15F394D8
:102D8000E394E394C4CFDF91CF911F910F91FF9013
:102D9000EF90DF90CF90BF90AF909F908F9008956D
:102DA0009F92AF92BF92CF92DF92EF92FF920F93DA
:102DB0001F93CF93DF93EC01B62EF42EA22EDE2CC0
:102DC000D194DD0C9D2C920E1E2D160F292D612FF6
:102DD0000E949E15CC24CA94C00ECF0C292D4C2DD8
:102DE000612FCE010E949E15D00EFE0C2D2D4F2D71
:102DF0006B2DCE010E947B15BA0C6FEF6B0D2D2D44
:102E00004F2DCE010E947B1501E02E2D4F2D612FFD
:102E1000CE010E94EA15DE2CD094DB0C02E02E2DB0
:102E20004F2D6D2DCE010E94EA15CE1804E02E2DF7
:102E30004C2D6D2DCE010E94EA1508E02E2D4C2D53
:102E4000612FCE010E94EA15DF91CF911F910F9162
:102E5000FF90EF90DF90CF90BF90AF909F9008953C
:102E6000AF92BF92CF92DF92EF92FF920F931F9398
:102E7000CF93DF93EC01A62EC42EB22EF02E1E2D82
:102E8000E194EE0CD12ED60E2E2D2B0D6D2D0E9421
:102E9000C115FA94FE0CC10E6FEF6A0D6B0D611B2C
:102EA000EF2C01E0212F4C2DCE010E94681602E08C
:102EB000212F4C2D6D2DCE010E946816DF91CF91F0
:102EC0001F910F91FF90EF90DF90CF90BF90AF9048
:102ED00008956F927F928F929F92AF92BF92CF92FE
:102EE000DF92EF92FF920F931F93CF93DF93F9013D
:102EF000A49031965491FC01F0A064350CF00CC103
:102F0000BB24A7FCB094A62FBB27A7FDB095FD015D
:102F1000EA0DFB1D1E161F060CF0FEC040330CF020
:102F2000FBC0C52E042F112707FD1095E801C50F22
:102F3000D11D57FDDA951C161D060CF0EDC0E901F8
:102F400022969501295F3F4F37FF02C0295F3F4F0F
:102F500073E0359527957A95E1F747FF0AC0C52EAE
:102F6000C40E209FA001219F500D1124C41BD50B1E
:102F700040E00C2D112707FD1095040F111D47FD92
:102F80001A95013311051CF070E3C72EC41A67FDB2
:102F900060E0E535F10514F0E4E5F0E01E2FFC01FA
:102FA00074857427862F992787FD9095FC01EA1B6D
:102FB000FB0BDF015F01F7E0AF22BB24E0E8F0E0AC
:102FC00002C0F595E795AA94E2F70E2FB7FD179684
:102FD00053E0B595A7955A95E1F7AC0FBD1FE42FC7
:102FE000E77051E001C0550FEA95EAF74595459520
:102FF0004595E4E54E02800D911D112483509E4FAE
:1030000040E0DD24C7FCD094BB24B3943327E42FE5
:10301000F0E0EC15FD050CF07FC0FD01E490F1E05F
:10302000FF1219C0EC01A02EFD01862E881A9C2EDD
:10303000980C911608F067C09E2C9A2019F0988081
:10304000952A9882A69429F43196E4906894AA244B
:10305000A7F82196ECCFF1101BC0752E7094EC01EF
:10306000A02EFD01862E881A9C2E980C911608F031
:103070004AC09E2C9A2019F0988097209882A69496
:1030800029F43196E4906894AA24A7F82196ECCF0D
:10309000E3E0FE1631F0EC01A02EFD01862E881A29
:1030A0002EC0752E7094962EEC01A02EFD01911667
:1030B000B0F48E2C8A2049F08880692C672660FE47
:1030C00002C0852A01C087208882A69429F43196FF
:1030D000E4906894AA24A7F893942196E8CF7B25DE
:1030E00012C09E2C9A2019F0988095269882A6945A
:1030F00029F43196E4906894AA24A7F821969C2E8E
:10310000980C911670F3550F19F48C5A9F4F51E09B
:103110004F5FA20FB31F7BCFDF91CF911F910F9114
:10312000FF90EF90DF90CF90BF90AF909F908F90E7
:103130007F906F900895DC01FB0184918F5F14965E
:103140008C9314973196E491EF5F1596EC93159755
:103150006E5F7F4F5F967C936E935E970895EF92BC
:103160000F93CF93DF93EC014E876D872F87E98A0A
:10317000088B81E0888788A319A28F8365EC7DE0A6
:10318000CE010E949B180E9456138CB58F7D8CBD7A
:103190008CB58C7F81608CBD8DB581608DBD8CB50B
:1031A0008C608CBD61E08E850E94252361E08D8559
:1031B0000E94252361E08F850E94252389891816A6
:1031C0001CF461E00E942523888918161CF461E034
:1031D0000E942523898918166CF460E00E945E2302
:1031E0006AE070E080E090E00E940B2261E0898953
:1031F0000E945E238D85992787FD9095FC01E752FB
:10320000FF4EE491F0E0EE0FFF1FE950FF4E2591D5
:1032100034913D8B2C8BFC01EB53FF4E84918B8FB3
:103220008E85992787FD9095FC01E752FF4EE4912A
:10323000F0E0EE0FFF1FE950FF4E259134913B8BDC
:103240002A8BFC01EB53FF4E84918A8F8889992742
:1032500087FD9095FC01E752FF4EE491F0E0EE0F00
:10326000FF1FE950FF4E259134913F8B2E8BFC01BF
:10327000EB53FF4E84918C8F8F85992787FD909516
:10328000FC01E752FF4EE491F0E0EE0FFF1FE95022
:10329000FF4E25913491398F288FFC01EB53FF4E5F
:1032A00084918D8F61E2CE010E94FC1464E1CE0115
:1032B0000E94FC148B8587FF02C08FE78B876B858C
:1032C0006068CE010E94FC1460E2CE010E94FC14F2
:1032D0006CE0CE010E94FC14CE01DF91CF910F91E2
:1032E000EF900C942B156F927F928F929F92AF92DA
:1032F000BF92CF92DF92EF92FF920F931F93CF93E3
:10330000DF93EC01162FF42EB02EE8A064350CF0FC
:1033100081C08FE284170CF47DC0EC81F0E031971E
:103320000E9FC0010F9F900D1124860F911D67FD08
:103330009A95181619060CF06DC08D81809FC001FA
:103340001124840F911D47FD9A95181619060CF04B
:1033500061C0A62E962EC22ED12C8A2D811B9927B4
:1033600087FD90952C8130E0821793070CF051C0B7
:10337000215031098217930779F0C29ED001C39E74
:10338000B00DD29EB00D1124A80FB91FEE8DFF8D88
:10339000EA0FFB1F749001C0712C8F2C6F2C282D0D
:1033A0002F19332727FD30958D8190E02817390795
:1033B0006CF570FE11C081E0B81206C0482D6A2D70
:1033C000CE010E94A4141EC00B2D2B2D462D692D5D
:1033D000CE010E94C11516C089A198A1891791F04C
:1033E00088A381E0B81206C0482D6A2DCE010E9444
:1033F000A41407C00B2D2B2D462D692DCE010E9444
:10340000C115E8A276946B0C8394C9CF9B0CA3944E
:10341000A4CFE8A2DF91CF911F910F91FF90EF9081
:10342000DF90CF90BF90AF909F908F907F906F90E4
:1034300008950F93CF93DF93EC01262F6A3039F470
:103440002D8198858A85299F800D112422C06D3099
:1034500011F108854A8569850E94731948855C8148
:103460002985549F200D112429878F81882399F065
:10347000332727FD309584E590E0459F8019910919
:103480001124821793073CF49D818A85499F800D02
:1034900011248A87198681E090E0DF91CF910F9106
:1034A0000895CF93DF93FC01462FEC01C158DF4F05
:1034B00070E088EE93E00E949E266883842F64E18A
:1034C0000E947E26811101C081E081A7DF91CF910A
:1034D00008958F929F92AF92BF92CF92DF92EF9218
:1034E000FF920F931F93CF93DF93EC015C0186E86B
:1034F000A80EB11CD5018C91882309F44DC08C30E5
:1035000018F41CE0181B01C010E0FE01EA5AFF4F3E
:1035100081E080836E01BEE4CB0ED11C60E0C60169
:103520000E9473154E01E3E58E0E911CD4018C911F
:1035300003E0080F9DE2F92E4F2D481B410F23E0B9
:10354000E22E24E560E0C6010E94301761E0C6016A
:103550000E947315F401808103E0080F4F2D481B72
:10356000410F24E560E0C6010E94D016FE01E95A31
:10357000FF4F84E080833196D4018C91181B115D3C
:103580001083CC57DF4F68817981C6010E94FB23ED
:10359000F501808181508083DF91CF911F910F9140
:1035A000FF90EF90DF90CF90BF90AF909F908F9063
:1035B0000895DF92EF92FF920F931F93CF93DF93C3
:1035C000EC018C8D9D8D892B09F49CC08E01025BD2
:1035D0001F4F40E061E0C8010E94771585E5FE01BC
:1035E000EE5AFF4F9081891B359680833196108269
:1035F000698D613009F462C028F0888D653008F06B
:1036000074C06FC0CE0185960E94C51F81E0FE0187
:10361000EA5AFF4F808365EC7DE0C8010E949B1849
:103620001D8E1C8EFE01EC5AFF4F108238EAD32EFD
:103630007E018AE0E80EF11CCE010E948A1B8823DD
:10364000D9F364EB7FE0C8010E94FB236A8D7B8D78
:103650004AE050E0C8010E94EB246FE97FE0C80116
:103660000E94FB236D2D62956F7070E04AE050E080
:10367000C8010E94D62464E97FE0C8010E94FB23B0
:1036800064E0C7010E947E1481113CC0DA94A1F667
:1036900060E0CE010E94901383B7817F846083BF76
:1036A00083B7816083BF83B7816083BF889583B709
:1036B0008E7F83BF83B78E7F83BFBECFCF58DF4F50
:1036C000488159816A817B814F705527662777270A
:1036D000483051056105710510F467E009C068E7DD
:1036E00007C0882379F06B5F03C0882359F06FE22D
:1036F000C801DF91CF911F910F91FF90EF90DF9064
:103700000C942024DF91CF911F910F91FF90EF90A7
:10371000DF9008958F929F92AF92BF92EF92FF92A7
:103720000F931F93CF93DF93EC017C0100E8E00E31
:10373000F11CF70180809180A280B3800E94DC217F
:1037400095018401061B170B280B390BB901A80141
:103750005E011FE7A10EB11CF501808190E0A0E0A1
:10376000B0E08E0105581F4F84179507A607B707CD
:1037700050F4F80180819181A281B381892B8A2B39
:103780008B2B09F040C0F80180819181A281B38127
:10379000892B8A2B8B2BA9F57E01F5E2EF0EF11C0C
:1037A000C7010E94C21FC7010E942F20C7010E94AB
:1037B000F320CE010E94691ACE010E94D91A7E011F
:1037C0002EE4E20EF11CC7010E942B15FE01EC5AFB
:1037D000FF4F8081811103C0C7010E941A150E940A
:1037E000E821F8016083718382839383FE01EB58A3
:1037F000FF4FC958DF4F28813981621B730B7183DA
:10380000608380E036C00E94DC21F5012081620FD8
:10381000711D811D911DF7016083718382839383E4
:10382000FE01EF58FF4F40815181628173814F5FEC
:103830005F4F6F4F7F4F4083518362837383F801E3
:1038400010821182128213820E94E821FE01E9583F
:10385000FF4F6083718382839383CE010E94941310
:10386000CE010A960E944714CE0148960E94FD138D
:1038700081E0DF91CF911F910F91FF90EF90BF906A
:10388000AF909F908F9008950F931F93CF93DF93E6
:103890008C01EC01C25BDF4FCE010E941A156CE671
:1038A0007FE0CE010E94FB23CE010E942B158CB538
:1038B00083608CBD8DB58E7F8DBD85E291E0EEEF8E
:1038C000FFE30995F801EC5AFF4F108267E47FE0AF
:1038D000CE010E942B24CE010E942B15065F1F4FA4
:1038E000C8010E94471464E0C8010E947E1481113F
:1038F00007C062E370E080E090E00E940B22F0CF0E
:10390000DF91CF911F910F9108952F923F924F9287
:103910005F926F927F928F929F92AF92BF92CF925F
:10392000DF92EF92FF920F931F93CF93DF93CDB768
:10393000DEB729970FB6F894DEBF0FBECDBF9987CB
:1039400088871B012A013C0180E7680E711CF30186
:103950008081882309F402C181E0E885F985EA5A6B
:10396000FF4F8083E885F985EB5AFF4F1082E88589
:10397000F985EC5AFF4F1082E885F985108E8F018A
:10398000025B1F4F61E0C8010E947315888599850D
:103990008D5A9F4F9C838B83C884D98497E5C90E29
:1039A000D11CE884F984E8E5EE0EF11C8885998540
:1039B0008E5A9F4F9A838983E885F985EF58FF4F88
:1039C000FE83ED8388849984FAE08F0E911CA8848D
:1039D000B98485E2A80EB11C888599850E948A1B4E
:1039E0008823D1F3F1018491882321F0EB81FC81BC
:1039F000508101C050E026ED3FE040E060E0C801AA
:103A00005F830E9469175F814114510439F04CE0D3
:103A1000450F920160E0C8010E946917F60110820B
:103A20008CE0F7018083B101C8010E94FB23E9818A
:103A3000FA819081892F880F890F81958D5AF6011F
:103A40008083EB81FC819081892F880F890F81957C
:103A5000835DF7018083ED81FE81808184FF03C057
:103A600062ED7FE002C06EEC7FE0C8010E942B2473
:103A7000E981FA819081892F880F890F81958D5A6C
:103A8000F6018083F70180818F5F8083E885F98567
:103A900082A5882319F06AEC7FE002C066EC7FE023
:103AA000C8010E942B24E981FA819081892F880F17
:103AB000890F81958D5AF6018083F70180818F5F90
:103AC000808362EC7FE0C8010E942B2465E0C40182
:103AD0000E947E14882351F0E885F98562A56F5F06
:103AE000C5010E948521C5010E946F2164E0C401C7
:103AF0000E947E14811113C0F3012081822F90E077
:103B0000A0E0B0E0ED81FE8140815181628173814E
:103B1000481759076A077B07A8F02F3F99F08FEFE6
:103B2000F3018083088519850B5D1F4F60E0C80194
:103B30000E946C1FC8010E94432181E0E885F9853D
:103B4000808F0CC066E0C4010E947E14882309F4B3
:103B500043CF888599850E94441C34CF29960FB69F
:103B6000F894DEBF0FBECDBFDF91CF911F910F91B3
:103B7000FF90EF90DF90CF90BF90AF909F908F908D
:103B80007F906F905F904F903F902F900895E0E866
:103B9000F7E72591349181E02130304C09F080E045
:103BA0000895CF93DF93EC010E94C71D9E01275A11
:103BB0003F4FDE01A059BF4F882309F43CC0E6E91E
:103BC000F7E78491F9018083E7E9F7E7E491EC8373
:103BD000E8E9F7E7E491ED83E9E9F7E78591949166
:103BE0009F838E83EBE9F7E7859194919987888786
:103BF000EDE9F7E7E491EBA7EEE9F7E7E491EAA74F
:103C0000EFE9F7E7E491EC93E0EAF7E78591949127
:103C10009D8F8C8FE2EAF7E7859194919F8F8E8F2D
:103C2000E4EAF7E78591949199A388A3E6EAF7E798
:103C30008591949120C08CE3F90180831C822FEF41
:103C40002D8380E293E09F838E8384ED93E09987B8
:103C5000888781E08BA78AA72C938CEA9DE09D8FB3
:103C60008C8F8EED9DE09F8F8E8F84E79EE099A3D1
:103C700088A38CE39FE09BA38AA3DF91CF91089553
:103C8000CF92DF92EF920F93CF93DF93EC01FC0181
:103C9000E158FF4F82E38083349741E050E060E0D9
:103CA00070E040835183628373833B978FEF8083FF
:103CB000CE010E94D11DCE010E948C136FEFCE0168
:103CC0000E9490136E018AE0C80ED11CC6010E94AA
:103CD0003714C6010E944714CE0148960E94F31380
:103CE0003EE0E32E0FE020E14BE06DE0CE01825B91
:103CF0009F4F0E94AF18A596CE010E94D81E65E086
:103D0000C6010E947E14882351F060E0CE01DF914D
:103D1000CF910F91EF90DF90CF900C94852140E0F0
:103D200066E470E1CE01DF91CF910F91EF90DF90CB
:103D3000CF900C94771FCF93DF9350E0FA01EE0FF2
:103D4000FF1FE80FF91F37852089E32FF22FE60FB9
:103D5000F11DE60FF11D25913491FA01EE0FFF1FC1
:103D6000E80FF91F30A3278FF90165917491FC01C9
:103D7000D481D69FC02D1124E40FF51FC1A3F901F2
:103D8000A591B4916B2F70E0EC2FF0E0DC01A40F53
:103D9000B51F6E177F0720F4F90125913491C32FC9
:103DA000CD9FC02D11249296CC93DF91CF91089591
:103DB00021E0FC01248324E020A725EA30E1308BB8
:103DC000278740E060E00E949B1E61E070E083E096
:103DD0000E949D22E1EBF0E08081887F81608083FA
:103DE000F89410928000E1E8F0E0108210928500D3
:103DF0001092840088E191E090938900809388007C
:103E0000808188608083808181608083EFE6F0E03C
:103E1000808182608083789408950F93FC01862FBF
:103E2000642F011129C08230D1F048F4882391F029
:103E3000813011F540E0CF010F910C949B1E83302F
:103E4000A9F08430C9F48481489F602D1124658FC6
:103E5000268F12C04B3008F06AE0668B0DC084815B
:103E6000489F602D1124618F228F06C08481489F56
:103E7000602D1124638F248F0F910895FC0121116F
:103E80000EC0648B8481489F402D1124458B15A260
:103E900014A213A281E0878B80930104108E0895F1
:103EA00080910104882319F08091FE0301C080E015
:103EB0008093B4000895FC0161110DC0178A158A22
:103EC00014A213A2108E1092FE031092FF03109200
:103ED00001040C94501F0895CF93DF93EC016111FE
:103EE00003C00E945B1F1982DF91CF9108950F9349
:103EF0001F93CF93DF93EC018B0141110EC060E063
:103F00000E946C1F1E870D871B8A1A8A81E0898395
:103F100089E08E8B198E1B8E1D8EDF91CF911F91A4
:103F20000F910895CF93DF93EC01611128C0888130
:103F3000882329F18981811122C089852F81988563
:103F4000E22FF92FE80FF11DE80FF11D85919491F3
:103F50008F3F2FEF920711F4188211C09C87992789
:103F6000880F991FEA85FB85E80FF91F6591749109
:103F700040E0CE010E94771F89858F5F8987DF919E
:103F8000CF91089560E00C94921F60E00C946C1F38
:103F90000F93CF93DF93EC0161115DC0898188237A
:103FA00009F459C08D89811156C02D853E858A89B5
:103FB0009B89880F991F820F931FFC018591949113
:103FC0000097D1F48989882321F01B8A1A8AF90184
:103FD00011C01982888160E0882331F0CE010E94EF
:103FE000921F8A899B8925C0CE01DF91CF910F91C5
:103FF0000C945B1F85919491BC017695679576959D
:10400000679580FF1DC0AC01A6E056954795AA951F
:10401000E1F7292F26952695269520514F716F702F
:1040200000E0CE010E940D1F8A899B8901969B8B1F
:104030008A8B880F991FED85FE85E80FF91FDACF6F
:10404000492F6F7320E0CE010E943E1F8A899B8911
:1040500001969B8B8A8BDF91CF910F91089560E041
:104060000C94C81FCF93DF93EC016111B9C08F8905
:10407000882309F4B5C08D89811105C0CE01DF9177
:10408000CF910C945B1F81508D8B8DA1811138C015
:104090008BA19CA101969C01220F331FEF8DF8A1EB
:1040A000E20FF31F25913491422F47704EA3A901CF
:1040B00063E0569547956A95E1F7BA01769567955D
:1040C000232F269526952FA36F732C81629F602D39
:1040D00011246DA341704093FD039CA38BA329A1E0
:1040E00030E08217930760F08AA1882329F0281B0B
:1040F00031093CA32BA304C060E0CE010E945B1FEA
:104100008DA181508DA3288D2F5F288F4C893FA1D1
:10411000340F8C85380F3A836B8D662361F070E025
:10412000822F992787FD90950E949E268C8D869FD1
:10413000300D11243A838A8190E0CB966BE370E0D6
:104140000E949E268A833E893B83698D662371F097
:10415000772767FD7095822F992787FD90950E949C
:104160009E268A8D869F300D11243B836D8D66239C
:1041700091F0822F992787FD909570E00E949E26EE
:10418000CB0162E070E00E949E262E8D9B81289FCD
:10419000900D11249B838B814F3339F08A300CF0C2
:1041A00089E087FD80E08B8301C01B82F894EA815F
:1041B000F0E0EC5AFF4EE491E093000498A58D8165
:1041C000989F802D11249B81899F802D11249EA171
:1041D000899F802D11248093FF038093FE037894A0
:1041E000DF91CF91089560E00C9432206091FF033D
:1041F000662321F1809102048F5F809302049091E5
:1042000000048917D8F08091010491E089278093F8
:104210000104109202048091FD03882369F09091BB
:10422000140183E4989F802D1124895B80931401ED
:104230000E947E269093FE030C94501F08951F92B7
:104240000F920FB60F9211242F933F934F935F93CA
:104250006F937F938F939F93AF93BF93EF93FF934E
:104260000E94F620FF91EF91BF91AF919F918F91A6
:104270007F916F915F914F913F912F910F900FBE62
:104280000F901F901895CF93DF93EC0160E00E9490
:104290006C1F8DE990E19E878D871B8A1A8A81E0C9
:1042A000898389E08E8B198E1B8E1D8EDF91CF91B5
:1042B0000895CF93DF93EC0160E00E946C1F85E9C5
:1042C00090E19E878D871B8A1A8A81E0898389E025
:1042D0008E8B198E1B8E1D8EDF91CF910895CF93FB
:1042E000DF93EC0160E00E946C1F8FE890E19E87F5
:1042F0008D871B8A1A8A81E0898389E08E8B198ECB
:104300001B8E1D8EDF91CF910895FC01862F99277A
:1043100087FD9095668170E06F5F7F4F0E949E26BB
:10432000858308951F920F920FB60F9211242F9339
:104330003F938F939F93AF93BF9380910404909189
:104340000504A0910604B09107043091030423E012
:10435000230F2D3720F40196A11DB11D05C026E8BD
:10436000230F0296A11DB11D209303048093040422
:1043700090930504A0930604B09307048091080469
:1043800090910904A0910A04B0910B040196A11D1B
:10439000B11D8093080490930904A0930A04B0937C
:1043A0000B04BF91AF919F918F913F912F910F90EF
:1043B0000FBE0F901F9018952FB7F89460910404CA
:1043C0007091050480910604909107042FBF089511
:1043D0003FB7F8948091080490910904A0910A04D1
:1043E000B0910B0426B5A89B05C02F3F19F001968C
:1043F000A11DB11D3FBF6627782F892F9A2F620F0D
:10440000711D811D911D42E0660F771F881F991F46
:104410004A95D1F708958F929F92AF92BF92CF9213
:10442000DF92EF92FF926B017C010E94E8214B0129
:104430005C01C114D104E104F104F1F00E945025A3
:104440000E94E821681979098A099B09683E73402E
:104450008105910570F321E0C21AD108E108F10845
:1044600088EE880E83E0981EA11CB11CC114D104F3
:10447000E104F10429F7DDCFFF90EF90DF90CF90BA
:10448000BF90AF909F908F900895789484B582608C
:1044900084BD84B5816084BD85B5826085BD85B5E8
:1044A000816085BDEEE6F0E0808181608083E1E897
:1044B000F0E01082808182608083808181608083CF
:1044C000E0E8F0E0808181608083E1EBF0E08081D2
:1044D00084608083E0EBF0E0808181608083EAE7A4
:1044E000F0E080818460808380818260808380812D
:1044F000816080838081806880831092C1000895EC
:104500008E3008F08E5087702091150190E4299F1D
:1045100090011124822B80937C0080917A0080642A
:1045200080937A0080917A0086FDFCCF809178009C
:104530002091790090E0922B08951F93CF93DF9301
:10454000182FEB0161E00E942523209711F460E011
:1045500004C0CF3FD10539F461E0812FDF91CF91C5
:104560001F910C945E23E12FF0E0EF54FF4EE49195
:10457000E330F9F048F4E130B9F0E230A1F584B568
:10458000806284BDC8BD34C0E730E9F0E83019F17D
:10459000E43049F580918000806280938000D09360
:1045A0008B00C0938A0024C084B5806884BDC7BDD9
:1045B0001FC080918000806880938000D093890024
:1045C000C093880015C08091B00080688093B000CF
:1045D000C093B3000DC08091B00080628093B000A2
:1045E000C093B40005C0C038D1050CF0B5CFAFCF33
:1045F000DF91CF911F910895833081F028F48130AD
:1046000099F08230A1F008958730A9F08830B9F090
:104610008430D1F4809180008F7D03C08091800030
:104620008F7780938000089584B58F7702C084B51A
:104630008F7D84BD08958091B0008F7703C08091F5
:10464000B0008F7D8093B0000895CF93DF9390E00A
:10465000FC01EB53FF4E2491FC01E752FF4E849185
:10466000882349F190E0880F991FFC01EF5FFE4E0F
:10467000A591B49189509F4EFC01C591D4919FB7EB
:10468000611108C0F8948C91209582238C938881C5
:1046900082230AC0623051F4F8948C91322F309505
:1046A00083238C938881822B888304C0F8948C9117
:1046B000822B8C939FBFDF91CF9108950F931F930F
:1046C000CF93DF931F92CDB7DEB7282F30E0F901EB
:1046D000EF54FF4E8491F901EB53FF4E1491F90111
:1046E000E752FF4E04910023C9F0882321F069832B
:1046F0000E94FC226981E02FF0E0EE0FFF1FE950DD
:10470000FF4EA591B4919FB7F8948C91611103C0AD
:104710001095812301C0812B8C939FBF0F90DF9157
:10472000CF911F910F910895CF93DF93282F30E001
:10473000F901EF54FF4E8491F901EB53FF4ED491F0
:10474000F901E752FF4EC491CC2391F081110E94F0
:10475000FC22EC2FF0E0EE0FFF1FE351FF4EA5917E
:10476000B4912C912D2381E090E021F480E002C0EF
:1047700080E090E0DF91CF910895CF92DF92EF92A9
:10478000FF920F931F93CF93DF937C016A01EB019C
:1047900000E010E00C151D0571F06991D701ED9155
:1047A000FC910190F081E02DC7010995892B19F04A
:1047B0000F5F1F4FEFCFC801DF91CF911F910F9176
:1047C000FF90EF90DF90CF9008956115710581F013
:1047D000DB010D900020E9F7AD0141505109461B66
:1047E000570BDC01ED91FC910280F381E02D0994DF
:1047F00080E090E00895EF92FF920F931F93CF9384
:10480000DF938C017B01C0E0D0E0F701EC0FFD1FCE
:104810006491662359F0F801A081B181ED91FC917A
:10482000C8010995892B11F02196EFCFCE01DF91B8
:10483000CF911F910F91FF90EF9008950C94E52375
:10484000DC01ED91FC910190F081E02D09946CE286
:1048500071E00C94E5230F931F93CF93DF93EC014A
:104860000E94FB238C01CE010E942724800F911F00
:10487000DF91CF911F910F9108958F929F92AF92E8
:10488000BF92DF92EF92FF920F931F93CF93DF932C
:10489000CDB7DEB7A1970FB6F894DEBF0FBECDBF80
:1048A0007C01F42FD52ECB0119A2223008F42AE086
:1048B0008E010F5D1F4F822E912CA12CB12C6F2FDA
:1048C0007D2DA50194010E94B226F22FD32ECA019C
:1048D000015011096A3014F4E0E301C0E7E3E60F88
:1048E000D801EC93232B242B252B49F7B801C701C2
:1048F0000E94E523A1960FB6F894DEBF0FBECDBF90
:10490000DF91CF911F910F91FF90EF90DF90BF90BB
:10491000AF909F908F900895CF92DF92EF92FF9289
:104920000F931F93CF93DF93EC016A017B01211555
:10493000310579F4E881F9810190F081E02D642F4F
:10494000DF91CF911F910F91FF90EF90DF90CF906B
:1049500009942A303105E9F477FF1AC06DE20E940C
:1049600020248C0144275527BA014C195D096E0992
:104970007F092AE0CE010E943D24800F911FDF9124
:10498000CF911F910F91FF90EF90DF90CF900895FE
:104990002AE0B701A601CE01DF91CF911F910F91BF
:1049A000FF90EF90DF90CF900C943D249A01AB01E3
:1049B000662757FD6095762F0C948C2421153105C0
:1049C00041F4DC01ED91FC910190F081E02D642F28
:1049D00009940C943D249A01AB0160E070E00C94C2
:1049E000DE24611571058105910511F00C9467278E
:1049F00008954F925F926F927F92AF92BF92CF9243
:104A0000DF92EF92FF920F931F93CF93DF93CDB777
:104A1000DEB729013A01621B730B840B950B2989C0
:104A20003A894B895C892A193B094C095D09298B14
:104A30003A8B4B8B5C8B9B01AC0169897A898B89A2
:104A40009C890E946E26E418F50806091709A8013A
:104A500097010E94D4262A0D3B1D4C1D5D1DCA01E5
:104A6000B901DF91CF911F910F91FF90EF90DF90EF
:104A7000CF90BF90AF907F906F905F904F900895D0
:104A800008950E9445220E9440250E944911C0E0DD
:104A9000D0E00E9467112097E1F30E940000F9CF57
:104AA000089598D088F09F5790F0B92F9927B75163
:104AB000A0F0D1F0660F771F881F991F1AF0BA95E2
:104AC000C9F712C0B13081F09FD0B1E008959CC009
:104AD000672F782F8827B85F39F0B93FCCF38695D8
:104AE00077956795B395D9F73EF490958095709535
:104AF00061957F4F8F4F9F4F0895E89409C097FBB2
:104B00003EF490958095709561957F4F8F4F9F4FA4
:104B10009923A9F0F92F96E9BB279395F6958795E8
:104B200077956795B795F111F8CFFAF4BB0F11F4AB
:104B300060FF1BC06F5F7F4F8F4F9F4F16C0882352
:104B400011F096E911C0772321F09EE8872F762F88
:104B500005C0662371F096E8862F70E060E02AF0C9
:104B60009A95660F771F881FDAF7880F96958795B5
:104B700097F9089597F99F6780E870E060E00895DD
:104B80009FEF80EC089500240A9416161706180665
:104B90000906089500240A94121613061406050641
:104BA0000895092E0394000C11F4882352F0BB0FD2
:104BB00040F4BF2B11F460FF04C06F5F7F4F8F4F35
:104BC0009F4F089557FD9058440F551F59F05F3F70
:104BD00071F04795880F97FB991F61F09F3F79F01F
:104BE00087950895121613061406551FF2CF4695A1
:104BF000F1DF08C0161617061806991FF1CF869523
:104C00007105610508940895E894BB276627772706
:104C1000CB0197F908950BD0C4CFB5DF28F0BADFE8
:104C200018F0952309F0A6CFABCF1124EECFCADF41
:104C3000A0F3959FD1F3950F50E0551F629FF001AF
:104C4000729FBB27F00DB11D639FAA27F00DB11D08
:104C5000AA1F649F6627B00DA11D661F829F222791
:104C6000B00DA11D621F739FB00DA11D621F839F18
:104C7000A00D611D221F749F3327A00D611D231FEE
:104C8000849F600D211D822F762F6A2F11249F573C
:104C900050408AF0E1F088234AF0EE0FFF1FBB1F5F
:104CA000661F771F881F91505040A9F79E3F5105FE
:104CB00070F060CFAACF5F3FECF3983EDCF38695AF
:104CC00077956795B795F795E7959F5FC1F7FE2BA9
:104CD000880F911D9695879597F90895DB018F931D
:104CE0009F930E94F326BF91AF91A29F800D911DCB
:104CF000A39F900DB29F900D11240895991B79E008
:104D000004C0991F961708F0961B881F7A95C9F75B
:104D100080950895AA1BBB1B51E107C0AA1FBB1FAA
:104D2000A617B70710F0A61BB70B881F991F5A9537
:104D3000A9F780959095BC01CD01089597FB072EAA
:104D400016F4009407D077FD09D00E948A2607FC4C
:104D500005D03EF4909581959F4F0895709561958B
:104D60007F4F0895A1E21A2EAA1BBB1BFD010DC0A7
:104D7000AA1FBB1FEE1FFF1FA217B307E407F5070B
:104D800020F0A21BB30BE40BF50B661F771F881FE7
:104D9000991F1A9469F760957095809590959B017D
:104DA000AC01BD01CF010895052E97FB1EF40094C0
:104DB0000E94EB2657FD07D00E94B22607FC03D0C5
:104DC0004EF40C94EB2650954095309521953F4F2D
:104DD0004F4F5F4F089590958095709561957F4FE7
:104DE0008F4F9F4F08950E940427A59F900DB49F59
:104DF000900DA49F800D911D11240895EE0FFF1FAB
:104E00000590F491E02D0994A29FB001B39FC001D9
:104E1000A39F700D811D1124911DB29F700D811DE6
:104E20001124911D08958F929F92AF92BF92CF92BD
:104E3000DF92EF92FF92CF93DF93EC01688179814B
:104E40008A819B81611571058105910521F464E2D8
:104E500079ED8BE597E02DE133EF41E050E00E94E2
:104E6000D42649015A019B01AC01A7EAB1E40E9492
:104E7000F3266B017C01ACEEB4EFA50194010E9416
:104E80007327C60ED71EE81EF91EF7FE06C081E086
:104E9000C81AD108E10880E8F80AC882D982EA82F3
:104EA000FB82C701B6019F77DF91CF91FF90EF9012
:104EB000DF90CF90BF90AF909F908F9008950E9409
:104EC0001327089586E091E00E94132708956093C8
:104ED00006017093070180930801909309010895DA
:104EE000B7FF0C94F3260E94F326821B930B0895C0
:044EF000F894FFCF64
:104EF40000000C04800001000000000124180300DD
:104F04000000000001015061757365640000000039
:104F140000191ABD234C4F41444552000D0A006E3E
:0E4F2400616E00696E66006F7666002E0000FA
:107E0000112484B714BE81FFF0D085E080938100F7
:107E100082E08093C00088E18093C10086E0809377
:107E2000C20080E18093C4008EE0C9D0259A86E02C
:107E300020E33CEF91E0309385002093840096BBD3
:107E4000B09BFECF1D9AA8958150A9F7CC24DD24C4
:107E500088248394B5E0AB2EA1E19A2EF3E0BF2EE7
:107E6000A2D0813461F49FD0082FAFD0023811F036
:107E7000013811F484E001C083E08DD089C08234E0
:107E800011F484E103C0853419F485E0A6D080C0E4
:107E9000853579F488D0E82EFF2485D0082F10E0AE
:107EA000102F00270E291F29000F111F8ED06801E7
:107EB0006FC0863521F484E090D080E0DECF843638
:107EC00009F040C070D06FD0082F6DD080E0C81688
:107ED00080E7D80618F4F601B7BEE895C0E0D1E017
:107EE00062D089930C17E1F7F0E0CF16F0E7DF06D8
:107EF00018F0F601B7BEE89568D007B600FCFDCFD4
:107F0000A601A0E0B1E02C9130E011968C91119780
:107F100090E0982F8827822B932B1296FA010C0160
:107F200087BEE89511244E5F5F4FF1E0A038BF0790
:107F300051F7F601A7BEE89507B600FCFDCF97BE46
:107F4000E89526C08437B1F42ED02DD0F82E2BD052
:107F50003CD0F601EF2C8F010F5F1F4F84911BD097
:107F6000EA94F801C1F70894C11CD11CFA94CF0C13
:107F7000D11C0EC0853739F428D08EE10CD085E9AC
:107F80000AD08FE07ACF813511F488E018D01DD067
:107F900080E101D065CF982F8091C00085FFFCCF94
:107FA0009093C60008958091C00087FFFCCF809118
:107FB000C00084FD01C0A8958091C6000895E0E648
:107FC000F0E098E1908380830895EDDF803219F02E
:107FD00088E0F5DFFFCF84E1DECF1F93182FE3DFCA
:107FE0001150E9F7F2DF1F91089580E0E8DFEE27F6
:047FF000FF270994CA
:027FFE00040479
:0400000300007E007B
:00000001FF
